{
  "contractName": "BestBid",
  "abi": [
    {
      "inputs": [
        {
          "internalType": "address",
          "name": "_BBN",
          "type": "address"
        }
      ],
      "stateMutability": "nonpayable",
      "type": "constructor"
    },
    {
      "anonymous": false,
      "inputs": [
        {
          "indexed": true,
          "internalType": "uint256",
          "name": "auction",
          "type": "uint256"
        }
      ],
      "name": "AuctionCreated",
      "type": "event"
    },
    {
      "anonymous": false,
      "inputs": [
        {
          "indexed": true,
          "internalType": "uint256",
          "name": "token",
          "type": "uint256"
        }
      ],
      "name": "TokenCreated",
      "type": "event"
    },
    {
      "inputs": [
        {
          "internalType": "string",
          "name": "name",
          "type": "string"
        },
        {
          "internalType": "string",
          "name": "desc",
          "type": "string"
        },
        {
          "internalType": "uint256",
          "name": "_token",
          "type": "uint256"
        }
      ],
      "name": "createAuction",
      "outputs": [
        {
          "internalType": "uint256",
          "name": "",
          "type": "uint256"
        }
      ],
      "stateMutability": "nonpayable",
      "type": "function"
    },
    {
      "inputs": [
        {
          "internalType": "string",
          "name": "token_name",
          "type": "string"
        },
        {
          "internalType": "string",
          "name": "tokenUri",
          "type": "string"
        }
      ],
      "name": "createToken",
      "outputs": [
        {
          "internalType": "uint256",
          "name": "",
          "type": "uint256"
        }
      ],
      "stateMutability": "nonpayable",
      "type": "function"
    },
    {
      "inputs": [
        {
          "internalType": "uint256",
          "name": "auctionId",
          "type": "uint256"
        },
        {
          "internalType": "string",
          "name": "_bidHash",
          "type": "string"
        }
      ],
      "name": "bidOnAuction",
      "outputs": [],
      "stateMutability": "payable",
      "type": "function"
    },
    {
      "inputs": [
        {
          "internalType": "uint256",
          "name": "auctionId",
          "type": "uint256"
        }
      ],
      "name": "claimBidAmount",
      "outputs": [],
      "stateMutability": "payable",
      "type": "function"
    },
    {
      "inputs": [
        {
          "internalType": "uint256",
          "name": "auctionId",
          "type": "uint256"
        }
      ],
      "name": "awardBidToHighestBidder",
      "outputs": [],
      "stateMutability": "payable",
      "type": "function"
    },
    {
      "inputs": [
        {
          "internalType": "uint256",
          "name": "aunctionId",
          "type": "uint256"
        }
      ],
      "name": "getAuctionBidforUser",
      "outputs": [
        {
          "components": [
            {
              "internalType": "address",
              "name": "bidder",
              "type": "address"
            },
            {
              "internalType": "string",
              "name": "bidHash",
              "type": "string"
            },
            {
              "internalType": "uint256",
              "name": "bidAmt",
              "type": "uint256"
            }
          ],
          "internalType": "struct BestBid.Bid",
          "name": "",
          "type": "tuple"
        }
      ],
      "stateMutability": "view",
      "type": "function"
    },
    {
      "inputs": [
        {
          "internalType": "uint256",
          "name": "auctionId",
          "type": "uint256"
        }
      ],
      "name": "getHighestBidAmountforAuction",
      "outputs": [
        {
          "internalType": "uint256",
          "name": "",
          "type": "uint256"
        }
      ],
      "stateMutability": "view",
      "type": "function"
    },
    {
      "inputs": [
        {
          "internalType": "uint256",
          "name": "auctionId",
          "type": "uint256"
        }
      ],
      "name": "getHighestBidforAuction",
      "outputs": [
        {
          "components": [
            {
              "internalType": "address",
              "name": "bidder",
              "type": "address"
            },
            {
              "internalType": "string",
              "name": "bidHash",
              "type": "string"
            },
            {
              "internalType": "uint256",
              "name": "bidAmt",
              "type": "uint256"
            }
          ],
          "internalType": "struct BestBid.Bid",
          "name": "",
          "type": "tuple"
        }
      ],
      "stateMutability": "view",
      "type": "function"
    },
    {
      "inputs": [
        {
          "internalType": "uint256",
          "name": "auctionId",
          "type": "uint256"
        }
      ],
      "name": "getAllBids",
      "outputs": [
        {
          "components": [
            {
              "internalType": "address",
              "name": "bidder",
              "type": "address"
            },
            {
              "internalType": "string",
              "name": "bidHash",
              "type": "string"
            },
            {
              "internalType": "uint256",
              "name": "bidAmt",
              "type": "uint256"
            }
          ],
          "internalType": "struct BestBid.Bid[]",
          "name": "",
          "type": "tuple[]"
        }
      ],
      "stateMutability": "view",
      "type": "function"
    },
    {
      "inputs": [
        {
          "internalType": "uint256",
          "name": "auctionId",
          "type": "uint256"
        }
      ],
      "name": "getAuctionCreator",
      "outputs": [
        {
          "internalType": "address",
          "name": "",
          "type": "address"
        }
      ],
      "stateMutability": "view",
      "type": "function"
    },
    {
      "inputs": [
        {
          "internalType": "uint256",
          "name": "auctionID",
          "type": "uint256"
        }
      ],
      "name": "getAuction",
      "outputs": [
        {
          "internalType": "string[3]",
          "name": "",
          "type": "string[3]"
        }
      ],
      "stateMutability": "view",
      "type": "function"
    }
  ],
  "bytecode": "0x60806040523480156200001157600080fd5b50604051620025d4380380620025d4833981810160405281019062000037919062000131565b336000806101000a81548173ffffffffffffffffffffffffffffffffffffffff021916908373ffffffffffffffffffffffffffffffffffffffff160217905550600060018190555080600560006101000a81548173ffffffffffffffffffffffffffffffffffffffff021916908373ffffffffffffffffffffffffffffffffffffffff1602179055505062000163565b600080fd5b600073ffffffffffffffffffffffffffffffffffffffff82169050919050565b6000620000f982620000cc565b9050919050565b6200010b81620000ec565b81146200011757600080fd5b50565b6000815190506200012b8162000100565b92915050565b6000602082840312156200014a5762000149620000c7565b5b60006200015a848285016200011a565b91505092915050565b61246180620001736000396000f3fe60806040526004361061009c5760003560e01c8063a528ff8311610064578063a528ff83146101b1578063a87d1a8c146101ee578063bcc29e971461020a578063da09bcf714610247578063ddf2070614610263578063eb2bfc38146102a05761009c565b80632f2f2d56146100a15780633bd988ac146100de57806365feffa41461011b57806378bd7935146101585780638630a12d14610195575b600080fd5b3480156100ad57600080fd5b506100c860048036038101906100c391906116e3565b6102dd565b6040516100d59190611774565b60405180910390f35b3480156100ea57600080fd5b50610105600480360381019061010091906117bb565b6103ec565b6040516101129190611829565b60405180910390f35b34801561012757600080fd5b50610142600480360381019061013d91906117bb565b61042c565b60405161014f919061193a565b60405180910390f35b34801561016457600080fd5b5061017f600480360381019061017a91906117bb565b61054e565b60405161018c9190611a12565b60405180910390f35b6101af60048036038101906101aa91906117bb565b610752565b005b3480156101bd57600080fd5b506101d860048036038101906101d391906117bb565b6108e6565b6040516101e59190611b46565b60405180910390f35b610208600480360381019061020391906117bb565b610a4d565b005b34801561021657600080fd5b50610231600480360381019061022c91906117bb565b610ded565b60405161023e9190611774565b60405180910390f35b610261600480360381019061025c9190611b68565b610e10565b005b34801561026f57600080fd5b5061028a60048036038101906102859190611bc4565b6112b0565b6040516102979190611774565b60405180910390f35b3480156102ac57600080fd5b506102c760048036038101906102c291906117bb565b6113cc565b6040516102d4919061193a565b60405180910390f35b600080600560009054906101000a900473ffffffffffffffffffffffffffffffffffffffff1673ffffffffffffffffffffffffffffffffffffffff16630138280733856040518363ffffffff1660e01b815260040161033d929190611c99565b6020604051808303816000875af115801561035c573d6000803e3d6000fd5b505050506040513d601f19601f820116820180604052508101906103809190611cde565b90506000600360008381526020019081526020016000209050818160000181905550848160010190816103b39190611f17565b50817f5871761b381266e7e47309f0821d5b396364ebb6371d878871cac5393cb93ea860405160405180910390a2819250505092915050565b60006002600083815260200190815260200160002060000160009054906101000a900473ffffffffffffffffffffffffffffffffffffffff169050919050565b61043461152b565b60026000838152602001908152602001600020600c016040518060600160405290816000820160009054906101000a900473ffffffffffffffffffffffffffffffffffffffff1673ffffffffffffffffffffffffffffffffffffffff1673ffffffffffffffffffffffffffffffffffffffff1681526020016001820180546104bb90611d3a565b80601f01602080910402602001604051908101604052809291908181526020018280546104e790611d3a565b80156105345780601f1061050957610100808354040283529160200191610534565b820191906000526020600020905b81548152906001019060200180831161051757829003601f168201915b505050505081526020016002820154815250509050919050565b610556611562565b60006002600084815260200190815260200160002090506000604051806060016040528083600101805461058990611d3a565b80601f01602080910402602001604051908101604052809291908181526020018280546105b590611d3a565b80156106025780601f106105d757610100808354040283529160200191610602565b820191906000526020600020905b8154815290600101906020018083116105e557829003601f168201915b5050505050815260200183600201805461061b90611d3a565b80601f016020809104026020016040519081016040528092919081815260200182805461064790611d3a565b80156106945780601f1061066957610100808354040283529160200191610694565b820191906000526020600020905b81548152906001019060200180831161067757829003601f168201915b50505050508152602001600560009054906101000a900473ffffffffffffffffffffffffffffffffffffffff1673ffffffffffffffffffffffffffffffffffffffff1663c87b56dd85600501546040518263ffffffff1660e01b81526004016106fd9190611774565b600060405180830381865afa15801561071a573d6000803e3d6000fd5b505050506040513d6000823e3d601f19601f820116820180604052508101906107439190612059565b81525090508092505050919050565b806002600082815260200190815260200160002060000160009054906101000a900473ffffffffffffffffffffffffffffffffffffffff1673ffffffffffffffffffffffffffffffffffffffff163373ffffffffffffffffffffffffffffffffffffffff16146107c157600080fd5b6000600260008481526020019081526020016000209050600115158160030160009054906101000a900460ff16151514610830576040517f08c379a0000000000000000000000000000000000000000000000000000000008152600401610827906120ee565b60405180910390fd5b60008160030160006101000a81548160ff0219169083151502179055508060000160009054906101000a900473ffffffffffffffffffffffffffffffffffffffff1673ffffffffffffffffffffffffffffffffffffffff1681600c016002015460405161089c9061213f565b60006040518083038185875af1925050503d80600081146108d9576040519150601f19603f3d011682016040523d82523d6000602084013e6108de565b606091505b505050505050565b606060026000838152602001908152602001600020600801805480602002602001604051908101604052809291908181526020016000905b82821015610a4257838290600052602060002090600302016040518060600160405290816000820160009054906101000a900473ffffffffffffffffffffffffffffffffffffffff1673ffffffffffffffffffffffffffffffffffffffff1673ffffffffffffffffffffffffffffffffffffffff1681526020016001820180546109a790611d3a565b80601f01602080910402602001604051908101604052809291908181526020018280546109d390611d3a565b8015610a205780601f106109f557610100808354040283529160200191610a20565b820191906000526020600020905b815481529060010190602001808311610a0357829003601f168201915b505050505081526020016002820154815250508152602001906001019061091e565b505050509050919050565b6000600260008381526020019081526020016000209050600015158160030160009054906101000a900460ff16151514610abc576040517f08c379a0000000000000000000000000000000000000000000000000000000008152600401610ab3906121a0565b60405180910390fd5b80600a0160003373ffffffffffffffffffffffffffffffffffffffff1673ffffffffffffffffffffffffffffffffffffffff16815260200190815260200160002060009054906101000a900460ff16610b4a576040517f08c379a0000000000000000000000000000000000000000000000000000000008152600401610b419061220c565b60405180910390fd5b6000151581600b0160003373ffffffffffffffffffffffffffffffffffffffff1673ffffffffffffffffffffffffffffffffffffffff16815260200190815260200160002060009054906101000a900460ff16151514610bdf576040517f08c379a0000000000000000000000000000000000000000000000000000000008152600401610bd69061229e565b60405180910390fd5b60008160060160003373ffffffffffffffffffffffffffffffffffffffff1673ffffffffffffffffffffffffffffffffffffffff1681526020019081526020016000206040518060600160405290816000820160009054906101000a900473ffffffffffffffffffffffffffffffffffffffff1673ffffffffffffffffffffffffffffffffffffffff1673ffffffffffffffffffffffffffffffffffffffff168152602001600182018054610c9390611d3a565b80601f0160208091040260200160405190810160405280929190818152602001828054610cbf90611d3a565b8015610d0c5780601f10610ce157610100808354040283529160200191610d0c565b820191906000526020600020905b815481529060010190602001808311610cef57829003601f168201915b505050505081526020016002820154815250509050600182600b0160003373ffffffffffffffffffffffffffffffffffffffff1673ffffffffffffffffffffffffffffffffffffffff16815260200190815260200160002060006101000a81548160ff0219169083151502179055503373ffffffffffffffffffffffffffffffffffffffff168160400151604051610da39061213f565b60006040518083038185875af1925050503d8060008114610de0576040519150601f19603f3d011682016040523d82523d6000602084013e610de5565b606091505b505050505050565b600060026000838152602001908152602001600020600c01600201549050919050565b60003411610e53576040517f08c379a0000000000000000000000000000000000000000000000000000000008152600401610e4a9061230a565b60405180910390fd5b6000600260008481526020019081526020016000209050600115158160030160009054906101000a900460ff16151514610ec2576040517f08c379a0000000000000000000000000000000000000000000000000000000008152600401610eb9906120ee565b60405180910390fd5b600060405180606001604052803373ffffffffffffffffffffffffffffffffffffffff1681526020018481526020013481525090508160080181908060018154018082558091505060019003906000526020600020906003020160009091909190915060008201518160000160006101000a81548173ffffffffffffffffffffffffffffffffffffffff021916908373ffffffffffffffffffffffffffffffffffffffff1602179055506020820151816001019081610f819190611f17565b50604082015181600201555050808260060160003373ffffffffffffffffffffffffffffffffffffffff1673ffffffffffffffffffffffffffffffffffffffff16815260200190815260200160002060008201518160000160006101000a81548173ffffffffffffffffffffffffffffffffffffffff021916908373ffffffffffffffffffffffffffffffffffffffff160217905550602082015181600101908161102c9190611f17565b5060408201518160020155905050808260070160008460040154815260200190815260200160002060008201518160000160006101000a81548173ffffffffffffffffffffffffffffffffffffffff021916908373ffffffffffffffffffffffffffffffffffffffff16021790555060208201518160010190816110b09190611f17565b5060408201518160020155905050348260090160008460040154815260200190815260200160002081905550600182600a0160003373ffffffffffffffffffffffffffffffffffffffff1673ffffffffffffffffffffffffffffffffffffffff16815260200190815260200160002060006101000a81548160ff021916908315150217905550600082600b0160003373ffffffffffffffffffffffffffffffffffffffff1673ffffffffffffffffffffffffffffffffffffffff16815260200190815260200160002060006101000a81548160ff0219169083151502179055506000826004015403611210578082600c0160008201518160000160006101000a81548173ffffffffffffffffffffffffffffffffffffffff021916908373ffffffffffffffffffffffffffffffffffffffff16021790555060208201518160010190816111fd9190611f17565b5060408201518160020155905050611290565b81600c016002015434111561128f578082600c0160008201518160000160006101000a81548173ffffffffffffffffffffffffffffffffffffffff021916908373ffffffffffffffffffffffffffffffffffffffff16021790555060208201518160010190816112809190611f17565b50604082015181600201559050505b5b8160040160008154809291906112a590612359565b919050555050505050565b6000806002600060015481526020019081526020016000209050338160000160006101000a81548173ffffffffffffffffffffffffffffffffffffffff021916908373ffffffffffffffffffffffffffffffffffffffff1602179055508481600101908161131e9190611f17565b50838160020190816113309190611f17565b5060018160030160006101000a81548160ff02191690831515021790555060008160040181905550828160050181905550600180600082825461137391906123a1565b925050819055506001805461138891906123f7565b7f7e0e356457a92dacd3760ddf327a24dd226c6ca01b2cc41a7fd6f28469c7ab9b60405160405180910390a2600180546113c291906123f7565b9150509392505050565b6113d461152b565b6002600083815260200190815260200160002060060160003373ffffffffffffffffffffffffffffffffffffffff1673ffffffffffffffffffffffffffffffffffffffff1681526020019081526020016000206040518060600160405290816000820160009054906101000a900473ffffffffffffffffffffffffffffffffffffffff1673ffffffffffffffffffffffffffffffffffffffff1673ffffffffffffffffffffffffffffffffffffffff16815260200160018201805461149890611d3a565b80601f01602080910402602001604051908101604052809291908181526020018280546114c490611d3a565b80156115115780601f106114e657610100808354040283529160200191611511565b820191906000526020600020905b8154815290600101906020018083116114f457829003601f168201915b505050505081526020016002820154815250509050919050565b6040518060600160405280600073ffffffffffffffffffffffffffffffffffffffff16815260200160608152602001600081525090565b60405180606001604052806003905b60608152602001906001900390816115715790505090565b6000604051905090565b600080fd5b600080fd5b600080fd5b600080fd5b6000601f19601f8301169050919050565b7f4e487b7100000000000000000000000000000000000000000000000000000000600052604160045260246000fd5b6115f0826115a7565b810181811067ffffffffffffffff8211171561160f5761160e6115b8565b5b80604052505050565b6000611622611589565b905061162e82826115e7565b919050565b600067ffffffffffffffff82111561164e5761164d6115b8565b5b611657826115a7565b9050602081019050919050565b82818337600083830152505050565b600061168661168184611633565b611618565b9050828152602081018484840111156116a2576116a16115a2565b5b6116ad848285611664565b509392505050565b600082601f8301126116ca576116c961159d565b5b81356116da848260208601611673565b91505092915050565b600080604083850312156116fa576116f9611593565b5b600083013567ffffffffffffffff81111561171857611717611598565b5b611724858286016116b5565b925050602083013567ffffffffffffffff81111561174557611744611598565b5b611751858286016116b5565b9150509250929050565b6000819050919050565b61176e8161175b565b82525050565b60006020820190506117896000830184611765565b92915050565b6117988161175b565b81146117a357600080fd5b50565b6000813590506117b58161178f565b92915050565b6000602082840312156117d1576117d0611593565b5b60006117df848285016117a6565b91505092915050565b600073ffffffffffffffffffffffffffffffffffffffff82169050919050565b6000611813826117e8565b9050919050565b61182381611808565b82525050565b600060208201905061183e600083018461181a565b92915050565b61184d81611808565b82525050565b600081519050919050565b600082825260208201905092915050565b60005b8381101561188d578082015181840152602081019050611872565b8381111561189c576000848401525b50505050565b60006118ad82611853565b6118b7818561185e565b93506118c781856020860161186f565b6118d0816115a7565b840191505092915050565b6118e48161175b565b82525050565b60006060830160008301516119026000860182611844565b506020830151848203602086015261191a82826118a2565b915050604083015161192f60408601826118db565b508091505092915050565b6000602082019050818103600083015261195481846118ea565b905092915050565b600060039050919050565b600081905092915050565b6000819050919050565b600061198883836118a2565b905092915050565b6000602082019050919050565b60006119a88261195c565b6119b28185611967565b9350836020820285016119c485611972565b8060005b85811015611a0057848403895281516119e1858261197c565b94506119ec83611990565b925060208a019950506001810190506119c8565b50829750879550505050505092915050565b60006020820190508181036000830152611a2c818461199d565b905092915050565b600081519050919050565b600082825260208201905092915050565b6000819050602082019050919050565b6000606083016000830151611a786000860182611844565b5060208301518482036020860152611a9082826118a2565b9150506040830151611aa560408601826118db565b508091505092915050565b6000611abc8383611a60565b905092915050565b6000602082019050919050565b6000611adc82611a34565b611ae68185611a3f565b935083602082028501611af885611a50565b8060005b85811015611b345784840389528151611b158582611ab0565b9450611b2083611ac4565b925060208a01995050600181019050611afc565b50829750879550505050505092915050565b60006020820190508181036000830152611b608184611ad1565b905092915050565b60008060408385031215611b7f57611b7e611593565b5b6000611b8d858286016117a6565b925050602083013567ffffffffffffffff811115611bae57611bad611598565b5b611bba858286016116b5565b9150509250929050565b600080600060608486031215611bdd57611bdc611593565b5b600084013567ffffffffffffffff811115611bfb57611bfa611598565b5b611c07868287016116b5565b935050602084013567ffffffffffffffff811115611c2857611c27611598565b5b611c34868287016116b5565b9250506040611c45868287016117a6565b9150509250925092565b600082825260208201905092915050565b6000611c6b82611853565b611c758185611c4f565b9350611c8581856020860161186f565b611c8e816115a7565b840191505092915050565b6000604082019050611cae600083018561181a565b8181036020830152611cc08184611c60565b90509392505050565b600081519050611cd88161178f565b92915050565b600060208284031215611cf457611cf3611593565b5b6000611d0284828501611cc9565b91505092915050565b7f4e487b7100000000000000000000000000000000000000000000000000000000600052602260045260246000fd5b60006002820490506001821680611d5257607f821691505b602082108103611d6557611d64611d0b565b5b50919050565b60008190508160005260206000209050919050565b60006020601f8301049050919050565b600082821b905092915050565b600060088302611dcd7fffffffffffffffffffffffffffffffffffffffffffffffffffffffffffffffff82611d90565b611dd78683611d90565b95508019841693508086168417925050509392505050565b6000819050919050565b6000611e14611e0f611e0a8461175b565b611def565b61175b565b9050919050565b6000819050919050565b611e2e83611df9565b611e42611e3a82611e1b565b848454611d9d565b825550505050565b600090565b611e57611e4a565b611e62818484611e25565b505050565b5b81811015611e8657611e7b600082611e4f565b600181019050611e68565b5050565b601f821115611ecb57611e9c81611d6b565b611ea584611d80565b81016020851015611eb4578190505b611ec8611ec085611d80565b830182611e67565b50505b505050565b600082821c905092915050565b6000611eee60001984600802611ed0565b1980831691505092915050565b6000611f078383611edd565b9150826002028217905092915050565b611f2082611853565b67ffffffffffffffff811115611f3957611f386115b8565b5b611f438254611d3a565b611f4e828285611e8a565b600060209050601f831160018114611f815760008415611f6f578287015190505b611f798582611efb565b865550611fe1565b601f198416611f8f86611d6b565b60005b82811015611fb757848901518255600182019150602085019450602081019050611f92565b86831015611fd45784890151611fd0601f891682611edd565b8355505b6001600288020188555050505b505050505050565b6000611ffc611ff784611633565b611618565b905082815260208101848484011115612018576120176115a2565b5b61202384828561186f565b509392505050565b600082601f8301126120405761203f61159d565b5b8151612050848260208601611fe9565b91505092915050565b60006020828403121561206f5761206e611593565b5b600082015167ffffffffffffffff81111561208d5761208c611598565b5b6120998482850161202b565b91505092915050565b7f41756374696f6e20616c72656164792061776172646564000000000000000000600082015250565b60006120d8601783611c4f565b91506120e3826120a2565b602082019050919050565b60006020820190508181036000830152612107816120cb565b9050919050565b600081905092915050565b50565b600061212960008361210e565b915061213482612119565b600082019050919050565b600061214a8261211c565b9150819050919050565b7f41756374696f6e206973207374696c6c20696e2070726f677265737300000000600082015250565b600061218a601c83611c4f565b915061219582612154565b602082019050919050565b600060208201905081810360008301526121b98161217d565b9050919050565b7f4f6e6c79206269646465722063616e20636c61696d2074686569722062696400600082015250565b60006121f6601f83611c4f565b9150612201826121c0565b602082019050919050565b60006020820190508181036000830152612225816121e9565b9050919050565b7f4269646465722068617320616c726561647920636c61696d656420776974686460008201527f726177616c000000000000000000000000000000000000000000000000000000602082015250565b6000612288602583611c4f565b91506122938261222c565b604082019050919050565b600060208201905081810360008301526122b78161227b565b9050919050565b7f42696420616d6f756e74206e6f742073656e7400000000000000000000000000600082015250565b60006122f4601383611c4f565b91506122ff826122be565b602082019050919050565b60006020820190508181036000830152612323816122e7565b9050919050565b7f4e487b7100000000000000000000000000000000000000000000000000000000600052601160045260246000fd5b60006123648261175b565b91507fffffffffffffffffffffffffffffffffffffffffffffffffffffffffffffffff82036123965761239561232a565b5b600182019050919050565b60006123ac8261175b565b91506123b78361175b565b9250827fffffffffffffffffffffffffffffffffffffffffffffffffffffffffffffffff038211156123ec576123eb61232a565b5b828201905092915050565b60006124028261175b565b915061240d8361175b565b9250828210156124205761241f61232a565b5b82820390509291505056fea2646970667358221220594557298739f727153bcfa5fad624a11a7b2afb62b62f37d9c00c3470ba8ed464736f6c634300080f0033",
  "immutableReferences": {},
  "source": "// SPDX-License-Identifier: MIT OR Apache-2.0\npragma solidity ^0.8.13;\n\nimport \"./BestBidNFT.sol\";\n\ncontract BestBid{\n\n    struct Bid{\n        address bidder;\n        string bidHash;\n        uint bidAmt;\n    }\n\n    struct Token{\n        uint tokenId;\n        string name;\n    }\n\n    struct Auction{\n        address creator;\n        string name;\n        string description;\n        bool status;\n        uint bidCount;\n        uint token;\n        mapping(address => Bid) userToBid;\n        mapping(uint => Bid) bids;\n        Bid[] allBids;\n        mapping(uint => uint) bidAmount;\n        mapping(address => bool) isBidder;\n        mapping(address => bool) bidWithdrawn;\n        Bid highestBid;\n    }\n\n    address moderator;\n    uint auctionCount;\n    mapping(uint => Auction) auctions;\n    mapping(uint => Token) tokens;\n\n    Auction[] auctionsArr;\n\n    event TokenCreated(uint indexed token);\n    event AuctionCreated(uint indexed auction);\n\n    modifier onlyModerator{\n        require(msg.sender == moderator);\n        _;\n    } \n\n    modifier onlyAuctionCreator(uint auctionId) {\n        require(msg.sender == auctions[auctionId].creator);\n        _;\n    }\n\n    BestBidNFT BBN;\n\n    constructor(address _BBN) {\n        moderator = msg.sender;\n        auctionCount = 0;\n        BBN = BestBidNFT(_BBN);\n    }\n\n    function createAuction(string memory name, string memory desc, uint _token) external returns (uint){\n        Auction storage auc = auctions[auctionCount];\n        auc.creator = msg.sender;\n        auc.name = name;\n        auc.description = desc;\n        auc.status = true;\n        auc.bidCount = 0;\n        auc.token = _token;\n\n        auctionCount += 1;\n\n        emit AuctionCreated(auctionCount-1);\n        return auctionCount -1;\n    } \n\n    function createToken(string memory token_name, string memory tokenUri) external returns (uint){\n        uint tokenId =  BBN.createToken(msg.sender, tokenUri);\n\n        Token storage token = tokens[tokenId];\n        token.tokenId = tokenId;\n        token.name = token_name;\n\n        emit TokenCreated(tokenId);\n        return tokenId;\n    }\n\n    function bidOnAuction(uint auctionId, string memory _bidHash) external payable{\n        require(msg.value > 0, \"Bid amount not sent\");\n        Auction storage auc = auctions[auctionId];\n        require(auc.status == true, \"Auction already awarded\");\n        Bid memory bid = Bid(msg.sender, _bidHash, msg.value);\n\n        auc.allBids.push(bid);\n        auc.userToBid[msg.sender] = bid;\n        auc.bids[auc.bidCount] = bid;\n        auc.bidAmount[auc.bidCount] = msg.value;\n        auc.isBidder[msg.sender] = true;\n        auc.bidWithdrawn[msg.sender] = false;\n\n        if(auc.bidCount == 0) {\n            auc.highestBid = bid;\n        }else{\n            if(msg.value > auc.highestBid.bidAmt) {\n                auc.highestBid = bid;\n            }\n        }\n\n        auc.bidCount++;\n    }\n\n    function claimBidAmount(uint auctionId) external payable {\n        Auction storage auc = auctions[auctionId];\n        require(auc.status == false, \"Auction is still in progress\");\n        require(auc.isBidder[msg.sender], \"Only bidder can claim their bid\");\n        require(auc.bidWithdrawn[msg.sender] == false, \"Bidder has already claimed withdrawal\");\n\n        Bid memory bid = auc.userToBid[msg.sender];\n        auc.bidWithdrawn[msg.sender] = true;\n        msg.sender.call{value: bid.bidAmt}(\"\");\n    }\n\n    function awardBidToHighestBidder(uint auctionId) external payable onlyAuctionCreator(auctionId) {\n        Auction storage auc = auctions[auctionId];\n        require(auc.status == true, \"Auction already awarded\");\n        auc.status = false;\n        auc.creator.call{value: auc.highestBid.bidAmt}(\"\");\n    }\n\n    function getAuctionBidforUser(uint aunctionId) external view returns(Bid memory) {\n        return auctions[aunctionId].userToBid[msg.sender];\n    } \n\n    function getHighestBidAmountforAuction(uint auctionId) external view returns(uint) {\n        return auctions[auctionId].highestBid.bidAmt;\n    }\n\n    function getHighestBidforAuction(uint auctionId) external view returns(Bid memory) {\n        return auctions[auctionId].highestBid;\n    }\n\n    function getAllBids(uint auctionId) external view returns(Bid[] memory){\n        return auctions[auctionId].allBids;\n    }\n\n    function getAuctionCreator(uint auctionId) external view returns(address) {\n        return auctions[auctionId].creator;\n    }\n\n    function getAuction(uint auctionID) external view returns (string[3] memory) {\n        Auction storage auc = auctions[auctionID];\n        string[3] memory auctionDetails = [auc.name, auc.description, BBN.tokenURI(auc.token)];\n\n        return auctionDetails;\n    }\n\n}",
  "sourcePath": "D:\\github\\BestBid\\contracts\\BestBidCore.sol",
  "compiler": {
    "name": "solc",
    "version": "0.8.15+commit.e14f2714.Emscripten.clang"
  },
  "schemaVersion": "3.4.4",
  "updatedAt": "2022-08-22T09:08:25.558Z",
  "devdoc": {
    "kind": "dev",
    "methods": {},
    "version": 1
  },
  "userdoc": {
    "kind": "user",
    "methods": {},
    "version": 1
  }
}