{
  "contractName": "BestBid",
  "abi": [
    {
      "inputs": [
        {
          "internalType": "address",
          "name": "_BBN",
          "type": "address"
        }
      ],
      "stateMutability": "nonpayable",
      "type": "constructor"
    },
    {
      "inputs": [
        {
          "internalType": "string",
          "name": "name",
          "type": "string"
        },
        {
          "internalType": "string",
          "name": "desc",
          "type": "string"
        },
        {
          "internalType": "uint256",
          "name": "_token",
          "type": "uint256"
        }
      ],
      "name": "createAuction",
      "outputs": [
        {
          "internalType": "uint256",
          "name": "",
          "type": "uint256"
        }
      ],
      "stateMutability": "nonpayable",
      "type": "function"
    },
    {
      "inputs": [
        {
          "internalType": "string",
          "name": "token_name",
          "type": "string"
        },
        {
          "internalType": "string",
          "name": "tokenUri",
          "type": "string"
        }
      ],
      "name": "createToken",
      "outputs": [
        {
          "internalType": "uint256",
          "name": "",
          "type": "uint256"
        }
      ],
      "stateMutability": "nonpayable",
      "type": "function"
    },
    {
      "inputs": [
        {
          "internalType": "uint256",
          "name": "auctionId",
          "type": "uint256"
        },
        {
          "internalType": "string",
          "name": "_bidHash",
          "type": "string"
        }
      ],
      "name": "bidOnAuction",
      "outputs": [],
      "stateMutability": "payable",
      "type": "function"
    },
    {
      "inputs": [
        {
          "internalType": "uint256",
          "name": "auctionId",
          "type": "uint256"
        }
      ],
      "name": "claimBidAmount",
      "outputs": [],
      "stateMutability": "payable",
      "type": "function"
    },
    {
      "inputs": [
        {
          "internalType": "uint256",
          "name": "auctionId",
          "type": "uint256"
        }
      ],
      "name": "awardBidToHighestBidder",
      "outputs": [],
      "stateMutability": "payable",
      "type": "function"
    },
    {
      "inputs": [
        {
          "internalType": "uint256",
          "name": "aunctionId",
          "type": "uint256"
        }
      ],
      "name": "getAuctionBidforUser",
      "outputs": [
        {
          "components": [
            {
              "internalType": "address",
              "name": "bidder",
              "type": "address"
            },
            {
              "internalType": "string",
              "name": "bidHash",
              "type": "string"
            },
            {
              "internalType": "uint256",
              "name": "bidAmt",
              "type": "uint256"
            }
          ],
          "internalType": "struct BestBid.Bid",
          "name": "",
          "type": "tuple"
        }
      ],
      "stateMutability": "view",
      "type": "function"
    },
    {
      "inputs": [
        {
          "internalType": "uint256",
          "name": "auctionId",
          "type": "uint256"
        }
      ],
      "name": "getHighestBidAmountforAuction",
      "outputs": [
        {
          "internalType": "uint256",
          "name": "",
          "type": "uint256"
        }
      ],
      "stateMutability": "view",
      "type": "function"
    },
    {
      "inputs": [
        {
          "internalType": "uint256",
          "name": "auctionId",
          "type": "uint256"
        }
      ],
      "name": "getHighestBidforAuction",
      "outputs": [
        {
          "components": [
            {
              "internalType": "address",
              "name": "bidder",
              "type": "address"
            },
            {
              "internalType": "string",
              "name": "bidHash",
              "type": "string"
            },
            {
              "internalType": "uint256",
              "name": "bidAmt",
              "type": "uint256"
            }
          ],
          "internalType": "struct BestBid.Bid",
          "name": "",
          "type": "tuple"
        }
      ],
      "stateMutability": "view",
      "type": "function"
    },
    {
      "inputs": [
        {
          "internalType": "uint256",
          "name": "auctionId",
          "type": "uint256"
        }
      ],
      "name": "getAllBids",
      "outputs": [
        {
          "components": [
            {
              "internalType": "address",
              "name": "bidder",
              "type": "address"
            },
            {
              "internalType": "string",
              "name": "bidHash",
              "type": "string"
            },
            {
              "internalType": "uint256",
              "name": "bidAmt",
              "type": "uint256"
            }
          ],
          "internalType": "struct BestBid.Bid[]",
          "name": "",
          "type": "tuple[]"
        }
      ],
      "stateMutability": "view",
      "type": "function"
    }
  ],
  "bytecode": "0x60806040523480156200001157600080fd5b50604051620020c6380380620020c6833981810160405281019062000037919062000131565b336000806101000a81548173ffffffffffffffffffffffffffffffffffffffff021916908373ffffffffffffffffffffffffffffffffffffffff160217905550600060018190555080600460006101000a81548173ffffffffffffffffffffffffffffffffffffffff021916908373ffffffffffffffffffffffffffffffffffffffff1602179055505062000163565b600080fd5b600073ffffffffffffffffffffffffffffffffffffffff82169050919050565b6000620000f982620000cc565b9050919050565b6200010b81620000ec565b81146200011757600080fd5b50565b6000815190506200012b8162000100565b92915050565b6000602082840312156200014a5762000149620000c7565b5b60006200015a848285016200011a565b91505092915050565b611f5380620001736000396000f3fe6080604052600436106100865760003560e01c8063a87d1a8c11610059578063a87d1a8c1461015e578063bcc29e971461017a578063da09bcf7146101b7578063ddf20706146101d3578063eb2bfc381461021057610086565b80632f2f2d561461008b57806365feffa4146100c85780638630a12d14610105578063a528ff8314610121575b600080fd5b34801561009757600080fd5b506100b260048036038101906100ad9190611381565b61024d565b6040516100bf9190611412565b60405180910390f35b3480156100d457600080fd5b506100ef60048036038101906100ea9190611459565b61032f565b6040516100fc91906115ae565b60405180910390f35b61011f600480360381019061011a9190611459565b610451565b005b34801561012d57600080fd5b5061014860048036038101906101439190611459565b6105e5565b60405161015591906116e2565b60405180910390f35b61017860048036038101906101739190611459565b61074c565b005b34801561018657600080fd5b506101a1600480360381019061019c9190611459565b610aec565b6040516101ae9190611412565b60405180910390f35b6101d160048036038101906101cc9190611704565b610b0f565b005b3480156101df57600080fd5b506101fa60048036038101906101f59190611760565b610faf565b6040516102079190611412565b60405180910390f35b34801561021c57600080fd5b5061023760048036038101906102329190611459565b611091565b60405161024491906115ae565b60405180910390f35b600080600460009054906101000a900473ffffffffffffffffffffffffffffffffffffffff1673ffffffffffffffffffffffffffffffffffffffff16630138280733856040518363ffffffff1660e01b81526004016102ad929190611844565b6020604051808303816000875af11580156102cc573d6000803e3d6000fd5b505050506040513d601f19601f820116820180604052508101906102f09190611889565b90506000600360008381526020019081526020016000209050818160000181905550848160010190816103239190611ac2565b50819250505092915050565b6103376111f0565b60026000838152602001908152602001600020600c016040518060600160405290816000820160009054906101000a900473ffffffffffffffffffffffffffffffffffffffff1673ffffffffffffffffffffffffffffffffffffffff1673ffffffffffffffffffffffffffffffffffffffff1681526020016001820180546103be906118e5565b80601f01602080910402602001604051908101604052809291908181526020018280546103ea906118e5565b80156104375780601f1061040c57610100808354040283529160200191610437565b820191906000526020600020905b81548152906001019060200180831161041a57829003601f168201915b505050505081526020016002820154815250509050919050565b806002600082815260200190815260200160002060000160009054906101000a900473ffffffffffffffffffffffffffffffffffffffff1673ffffffffffffffffffffffffffffffffffffffff163373ffffffffffffffffffffffffffffffffffffffff16146104c057600080fd5b6000600260008481526020019081526020016000209050600115158160030160009054906101000a900460ff1615151461052f576040517f08c379a000000000000000000000000000000000000000000000000000000000815260040161052690611be0565b60405180910390fd5b60008160030160006101000a81548160ff0219169083151502179055508060000160009054906101000a900473ffffffffffffffffffffffffffffffffffffffff1673ffffffffffffffffffffffffffffffffffffffff1681600c016002015460405161059b90611c31565b60006040518083038185875af1925050503d80600081146105d8576040519150601f19603f3d011682016040523d82523d6000602084013e6105dd565b606091505b505050505050565b606060026000838152602001908152602001600020600801805480602002602001604051908101604052809291908181526020016000905b8282101561074157838290600052602060002090600302016040518060600160405290816000820160009054906101000a900473ffffffffffffffffffffffffffffffffffffffff1673ffffffffffffffffffffffffffffffffffffffff1673ffffffffffffffffffffffffffffffffffffffff1681526020016001820180546106a6906118e5565b80601f01602080910402602001604051908101604052809291908181526020018280546106d2906118e5565b801561071f5780601f106106f45761010080835404028352916020019161071f565b820191906000526020600020905b81548152906001019060200180831161070257829003601f168201915b505050505081526020016002820154815250508152602001906001019061061d565b505050509050919050565b6000600260008381526020019081526020016000209050600015158160030160009054906101000a900460ff161515146107bb576040517f08c379a00000000000000000000000000000000000000000000000000000000081526004016107b290611c92565b60405180910390fd5b80600a0160003373ffffffffffffffffffffffffffffffffffffffff1673ffffffffffffffffffffffffffffffffffffffff16815260200190815260200160002060009054906101000a900460ff16610849576040517f08c379a000000000000000000000000000000000000000000000000000000000815260040161084090611cfe565b60405180910390fd5b6000151581600b0160003373ffffffffffffffffffffffffffffffffffffffff1673ffffffffffffffffffffffffffffffffffffffff16815260200190815260200160002060009054906101000a900460ff161515146108de576040517f08c379a00000000000000000000000000000000000000000000000000000000081526004016108d590611d90565b60405180910390fd5b60008160060160003373ffffffffffffffffffffffffffffffffffffffff1673ffffffffffffffffffffffffffffffffffffffff1681526020019081526020016000206040518060600160405290816000820160009054906101000a900473ffffffffffffffffffffffffffffffffffffffff1673ffffffffffffffffffffffffffffffffffffffff1673ffffffffffffffffffffffffffffffffffffffff168152602001600182018054610992906118e5565b80601f01602080910402602001604051908101604052809291908181526020018280546109be906118e5565b8015610a0b5780601f106109e057610100808354040283529160200191610a0b565b820191906000526020600020905b8154815290600101906020018083116109ee57829003601f168201915b505050505081526020016002820154815250509050600182600b0160003373ffffffffffffffffffffffffffffffffffffffff1673ffffffffffffffffffffffffffffffffffffffff16815260200190815260200160002060006101000a81548160ff0219169083151502179055503373ffffffffffffffffffffffffffffffffffffffff168160400151604051610aa290611c31565b60006040518083038185875af1925050503d8060008114610adf576040519150601f19603f3d011682016040523d82523d6000602084013e610ae4565b606091505b505050505050565b600060026000838152602001908152602001600020600c01600201549050919050565b60003411610b52576040517f08c379a0000000000000000000000000000000000000000000000000000000008152600401610b4990611dfc565b60405180910390fd5b6000600260008481526020019081526020016000209050600115158160030160009054906101000a900460ff16151514610bc1576040517f08c379a0000000000000000000000000000000000000000000000000000000008152600401610bb890611be0565b60405180910390fd5b600060405180606001604052803373ffffffffffffffffffffffffffffffffffffffff1681526020018481526020013481525090508160080181908060018154018082558091505060019003906000526020600020906003020160009091909190915060008201518160000160006101000a81548173ffffffffffffffffffffffffffffffffffffffff021916908373ffffffffffffffffffffffffffffffffffffffff1602179055506020820151816001019081610c809190611ac2565b50604082015181600201555050808260060160003373ffffffffffffffffffffffffffffffffffffffff1673ffffffffffffffffffffffffffffffffffffffff16815260200190815260200160002060008201518160000160006101000a81548173ffffffffffffffffffffffffffffffffffffffff021916908373ffffffffffffffffffffffffffffffffffffffff1602179055506020820151816001019081610d2b9190611ac2565b5060408201518160020155905050808260070160008460040154815260200190815260200160002060008201518160000160006101000a81548173ffffffffffffffffffffffffffffffffffffffff021916908373ffffffffffffffffffffffffffffffffffffffff1602179055506020820151816001019081610daf9190611ac2565b5060408201518160020155905050348260090160008460040154815260200190815260200160002081905550600182600a0160003373ffffffffffffffffffffffffffffffffffffffff1673ffffffffffffffffffffffffffffffffffffffff16815260200190815260200160002060006101000a81548160ff021916908315150217905550600082600b0160003373ffffffffffffffffffffffffffffffffffffffff1673ffffffffffffffffffffffffffffffffffffffff16815260200190815260200160002060006101000a81548160ff0219169083151502179055506000826004015403610f0f578082600c0160008201518160000160006101000a81548173ffffffffffffffffffffffffffffffffffffffff021916908373ffffffffffffffffffffffffffffffffffffffff1602179055506020820151816001019081610efc9190611ac2565b5060408201518160020155905050610f8f565b81600c0160020154341115610f8e578082600c0160008201518160000160006101000a81548173ffffffffffffffffffffffffffffffffffffffff021916908373ffffffffffffffffffffffffffffffffffffffff1602179055506020820151816001019081610f7f9190611ac2565b50604082015181600201559050505b5b816004016000815480929190610fa490611e4b565b919050555050505050565b6000806002600060015481526020019081526020016000209050338160000160006101000a81548173ffffffffffffffffffffffffffffffffffffffff021916908373ffffffffffffffffffffffffffffffffffffffff1602179055508481600101908161101d9190611ac2565b508381600201908161102f9190611ac2565b5060018160030160006101000a81548160ff0219169083151502179055506000816004018190555082816005018190555060018060008282546110729190611e93565b92505081905550600180546110879190611ee9565b9150509392505050565b6110996111f0565b6002600083815260200190815260200160002060060160003373ffffffffffffffffffffffffffffffffffffffff1673ffffffffffffffffffffffffffffffffffffffff1681526020019081526020016000206040518060600160405290816000820160009054906101000a900473ffffffffffffffffffffffffffffffffffffffff1673ffffffffffffffffffffffffffffffffffffffff1673ffffffffffffffffffffffffffffffffffffffff16815260200160018201805461115d906118e5565b80601f0160208091040260200160405190810160405280929190818152602001828054611189906118e5565b80156111d65780601f106111ab576101008083540402835291602001916111d6565b820191906000526020600020905b8154815290600101906020018083116111b957829003601f168201915b505050505081526020016002820154815250509050919050565b6040518060600160405280600073ffffffffffffffffffffffffffffffffffffffff16815260200160608152602001600081525090565b6000604051905090565b600080fd5b600080fd5b600080fd5b600080fd5b6000601f19601f8301169050919050565b7f4e487b7100000000000000000000000000000000000000000000000000000000600052604160045260246000fd5b61128e82611245565b810181811067ffffffffffffffff821117156112ad576112ac611256565b5b80604052505050565b60006112c0611227565b90506112cc8282611285565b919050565b600067ffffffffffffffff8211156112ec576112eb611256565b5b6112f582611245565b9050602081019050919050565b82818337600083830152505050565b600061132461131f846112d1565b6112b6565b9050828152602081018484840111156113405761133f611240565b5b61134b848285611302565b509392505050565b600082601f8301126113685761136761123b565b5b8135611378848260208601611311565b91505092915050565b6000806040838503121561139857611397611231565b5b600083013567ffffffffffffffff8111156113b6576113b5611236565b5b6113c285828601611353565b925050602083013567ffffffffffffffff8111156113e3576113e2611236565b5b6113ef85828601611353565b9150509250929050565b6000819050919050565b61140c816113f9565b82525050565b60006020820190506114276000830184611403565b92915050565b611436816113f9565b811461144157600080fd5b50565b6000813590506114538161142d565b92915050565b60006020828403121561146f5761146e611231565b5b600061147d84828501611444565b91505092915050565b600073ffffffffffffffffffffffffffffffffffffffff82169050919050565b60006114b182611486565b9050919050565b6114c1816114a6565b82525050565b600081519050919050565b600082825260208201905092915050565b60005b838110156115015780820151818401526020810190506114e6565b83811115611510576000848401525b50505050565b6000611521826114c7565b61152b81856114d2565b935061153b8185602086016114e3565b61154481611245565b840191505092915050565b611558816113f9565b82525050565b600060608301600083015161157660008601826114b8565b506020830151848203602086015261158e8282611516565b91505060408301516115a3604086018261154f565b508091505092915050565b600060208201905081810360008301526115c8818461155e565b905092915050565b600081519050919050565b600082825260208201905092915050565b6000819050602082019050919050565b600060608301600083015161161460008601826114b8565b506020830151848203602086015261162c8282611516565b9150506040830151611641604086018261154f565b508091505092915050565b600061165883836115fc565b905092915050565b6000602082019050919050565b6000611678826115d0565b61168281856115db565b935083602082028501611694856115ec565b8060005b858110156116d057848403895281516116b1858261164c565b94506116bc83611660565b925060208a01995050600181019050611698565b50829750879550505050505092915050565b600060208201905081810360008301526116fc818461166d565b905092915050565b6000806040838503121561171b5761171a611231565b5b600061172985828601611444565b925050602083013567ffffffffffffffff81111561174a57611749611236565b5b61175685828601611353565b9150509250929050565b60008060006060848603121561177957611778611231565b5b600084013567ffffffffffffffff81111561179757611796611236565b5b6117a386828701611353565b935050602084013567ffffffffffffffff8111156117c4576117c3611236565b5b6117d086828701611353565b92505060406117e186828701611444565b9150509250925092565b6117f4816114a6565b82525050565b600082825260208201905092915050565b6000611816826114c7565b61182081856117fa565b93506118308185602086016114e3565b61183981611245565b840191505092915050565b600060408201905061185960008301856117eb565b818103602083015261186b818461180b565b90509392505050565b6000815190506118838161142d565b92915050565b60006020828403121561189f5761189e611231565b5b60006118ad84828501611874565b91505092915050565b7f4e487b7100000000000000000000000000000000000000000000000000000000600052602260045260246000fd5b600060028204905060018216806118fd57607f821691505b6020821081036119105761190f6118b6565b5b50919050565b60008190508160005260206000209050919050565b60006020601f8301049050919050565b600082821b905092915050565b6000600883026119787fffffffffffffffffffffffffffffffffffffffffffffffffffffffffffffffff8261193b565b611982868361193b565b95508019841693508086168417925050509392505050565b6000819050919050565b60006119bf6119ba6119b5846113f9565b61199a565b6113f9565b9050919050565b6000819050919050565b6119d9836119a4565b6119ed6119e5826119c6565b848454611948565b825550505050565b600090565b611a026119f5565b611a0d8184846119d0565b505050565b5b81811015611a3157611a266000826119fa565b600181019050611a13565b5050565b601f821115611a7657611a4781611916565b611a508461192b565b81016020851015611a5f578190505b611a73611a6b8561192b565b830182611a12565b50505b505050565b600082821c905092915050565b6000611a9960001984600802611a7b565b1980831691505092915050565b6000611ab28383611a88565b9150826002028217905092915050565b611acb826114c7565b67ffffffffffffffff811115611ae457611ae3611256565b5b611aee82546118e5565b611af9828285611a35565b600060209050601f831160018114611b2c5760008415611b1a578287015190505b611b248582611aa6565b865550611b8c565b601f198416611b3a86611916565b60005b82811015611b6257848901518255600182019150602085019450602081019050611b3d565b86831015611b7f5784890151611b7b601f891682611a88565b8355505b6001600288020188555050505b505050505050565b7f41756374696f6e20616c72656164792061776172646564000000000000000000600082015250565b6000611bca6017836117fa565b9150611bd582611b94565b602082019050919050565b60006020820190508181036000830152611bf981611bbd565b9050919050565b600081905092915050565b50565b6000611c1b600083611c00565b9150611c2682611c0b565b600082019050919050565b6000611c3c82611c0e565b9150819050919050565b7f41756374696f6e206973207374696c6c20696e2070726f677265737300000000600082015250565b6000611c7c601c836117fa565b9150611c8782611c46565b602082019050919050565b60006020820190508181036000830152611cab81611c6f565b9050919050565b7f4f6e6c79206269646465722063616e20636c61696d2074686569722062696400600082015250565b6000611ce8601f836117fa565b9150611cf382611cb2565b602082019050919050565b60006020820190508181036000830152611d1781611cdb565b9050919050565b7f4269646465722068617320616c726561647920636c61696d656420776974686460008201527f726177616c000000000000000000000000000000000000000000000000000000602082015250565b6000611d7a6025836117fa565b9150611d8582611d1e565b604082019050919050565b60006020820190508181036000830152611da981611d6d565b9050919050565b7f42696420616d6f756e74206e6f742073656e7400000000000000000000000000600082015250565b6000611de66013836117fa565b9150611df182611db0565b602082019050919050565b60006020820190508181036000830152611e1581611dd9565b9050919050565b7f4e487b7100000000000000000000000000000000000000000000000000000000600052601160045260246000fd5b6000611e56826113f9565b91507fffffffffffffffffffffffffffffffffffffffffffffffffffffffffffffffff8203611e8857611e87611e1c565b5b600182019050919050565b6000611e9e826113f9565b9150611ea9836113f9565b9250827fffffffffffffffffffffffffffffffffffffffffffffffffffffffffffffffff03821115611ede57611edd611e1c565b5b828201905092915050565b6000611ef4826113f9565b9150611eff836113f9565b925082821015611f1257611f11611e1c565b5b82820390509291505056fea2646970667358221220574d1a68b86b86ff4ca842893847d6fc0de1038a6086ebd734aa9f053e36865f64736f6c634300080f0033",
  "immutableReferences": {},
  "source": "// SPDX-License-Identifier: MIT OR Apache-2.0\npragma solidity ^0.8.13;\n\nimport \"./BestBidNFT.sol\";\n\ncontract BestBid{\n\n    struct Bid{\n        address bidder;\n        string bidHash;\n        uint bidAmt;\n    }\n\n    struct Token{\n        uint tokenId;\n        string name;\n    }\n\n    struct Auction{\n        address creator;\n        string name;\n        string description;\n        bool status;\n        uint bidCount;\n        uint token;\n        mapping(address => Bid) userToBid;\n        mapping(uint => Bid) bids;\n        Bid[] allBids;\n        mapping(uint => uint) bidAmount;\n        mapping(address => bool) isBidder;\n        mapping(address => bool) bidWithdrawn;\n        Bid highestBid;\n    }\n\n    address moderator;\n    uint auctionCount;\n    mapping(uint => Auction) auctions;\n    mapping(uint => Token) tokens;\n\n    modifier onlyModerator{\n        require(msg.sender == moderator);\n        _;\n    } \n\n    modifier onlyAuctionCreator(uint auctionId) {\n        require(msg.sender == auctions[auctionId].creator);\n        _;\n    }\n\n    BestBidNFT BBN;\n\n    constructor(address _BBN) {\n        moderator = msg.sender;\n        auctionCount = 0;\n        BBN = BestBidNFT(_BBN);\n    }\n\n    function createAuction(string memory name, string memory desc, uint _token) external returns (uint){\n        Auction storage auc = auctions[auctionCount];\n        auc.creator = msg.sender;\n        auc.name = name;\n        auc.description = desc;\n        auc.status = true;\n        auc.bidCount = 0;\n        auc.token = _token;\n\n        auctionCount += 1;\n        return auctionCount -1;\n    } \n\n\n    function createToken(string memory token_name, string memory tokenUri) external returns (uint){\n        uint tokenId =  BBN.createToken(msg.sender, tokenUri);\n\n        Token storage token = tokens[tokenId];\n        token.tokenId = tokenId;\n        token.name = token_name;\n\n        return tokenId;\n    }\n\n    function bidOnAuction(uint auctionId, string memory _bidHash) external payable{\n        require(msg.value > 0, \"Bid amount not sent\");\n        Auction storage auc = auctions[auctionId];\n        require(auc.status == true, \"Auction already awarded\");\n        Bid memory bid = Bid(msg.sender, _bidHash, msg.value);\n\n        auc.allBids.push(bid);\n        auc.userToBid[msg.sender] = bid;\n        auc.bids[auc.bidCount] = bid;\n        auc.bidAmount[auc.bidCount] = msg.value;\n        auc.isBidder[msg.sender] = true;\n        auc.bidWithdrawn[msg.sender] = false;\n\n        if(auc.bidCount == 0) {\n            auc.highestBid = bid;\n        }else{\n            if(msg.value > auc.highestBid.bidAmt) {\n                auc.highestBid = bid;\n            }\n        }\n\n        auc.bidCount++;\n    }\n\n    function claimBidAmount(uint auctionId) external payable {\n        Auction storage auc = auctions[auctionId];\n        require(auc.status == false, \"Auction is still in progress\");\n        require(auc.isBidder[msg.sender], \"Only bidder can claim their bid\");\n        require(auc.bidWithdrawn[msg.sender] == false, \"Bidder has already claimed withdrawal\");\n\n        Bid memory bid = auc.userToBid[msg.sender];\n        auc.bidWithdrawn[msg.sender] = true;\n        msg.sender.call{value: bid.bidAmt}(\"\");\n    }\n\n    function awardBidToHighestBidder(uint auctionId) external payable onlyAuctionCreator(auctionId) {\n        Auction storage auc = auctions[auctionId];\n        require(auc.status == true, \"Auction already awarded\");\n        auc.status = false;\n        auc.creator.call{value: auc.highestBid.bidAmt}(\"\");\n    }\n\n    function getAuctionBidforUser(uint aunctionId) external view returns(Bid memory) {\n        return auctions[aunctionId].userToBid[msg.sender];\n    } \n\n    function getHighestBidAmountforAuction(uint auctionId) external view returns(uint) {\n        return auctions[auctionId].highestBid.bidAmt;\n    }\n\n    function getHighestBidforAuction(uint auctionId) external view returns(Bid memory) {\n        return auctions[auctionId].highestBid;\n    }\n\n    function getAllBids(uint auctionId) external view returns(Bid[] memory){\n        return auctions[auctionId].allBids;\n    }\n\n}",
  "sourcePath": "D:\\github\\BestBid\\contracts\\BestBidCore.sol",
  "compiler": {
    "name": "solc",
    "version": "0.8.15+commit.e14f2714.Emscripten.clang"
  },
  "schemaVersion": "3.4.4",
  "updatedAt": "2022-08-21T13:59:42.828Z",
  "devdoc": {
    "kind": "dev",
    "methods": {},
    "version": 1
  },
  "userdoc": {
    "kind": "user",
    "methods": {},
    "version": 1
  }
}