{
  "contractName": "BestBidNFT",
  "abi": [
    {
      "inputs": [
        {
          "internalType": "string",
          "name": "name",
          "type": "string"
        },
        {
          "internalType": "string",
          "name": "symbol",
          "type": "string"
        }
      ],
      "stateMutability": "nonpayable",
      "type": "constructor"
    },
    {
      "anonymous": false,
      "inputs": [
        {
          "indexed": true,
          "internalType": "address",
          "name": "owner",
          "type": "address"
        },
        {
          "indexed": true,
          "internalType": "address",
          "name": "approved",
          "type": "address"
        },
        {
          "indexed": true,
          "internalType": "uint256",
          "name": "tokenId",
          "type": "uint256"
        }
      ],
      "name": "Approval",
      "type": "event"
    },
    {
      "anonymous": false,
      "inputs": [
        {
          "indexed": true,
          "internalType": "address",
          "name": "owner",
          "type": "address"
        },
        {
          "indexed": true,
          "internalType": "address",
          "name": "operator",
          "type": "address"
        },
        {
          "indexed": false,
          "internalType": "bool",
          "name": "approved",
          "type": "bool"
        }
      ],
      "name": "ApprovalForAll",
      "type": "event"
    },
    {
      "anonymous": false,
      "inputs": [
        {
          "indexed": true,
          "internalType": "address",
          "name": "from",
          "type": "address"
        },
        {
          "indexed": true,
          "internalType": "address",
          "name": "to",
          "type": "address"
        },
        {
          "indexed": true,
          "internalType": "uint256",
          "name": "tokenId",
          "type": "uint256"
        }
      ],
      "name": "Transfer",
      "type": "event"
    },
    {
      "inputs": [
        {
          "internalType": "address",
          "name": "to",
          "type": "address"
        },
        {
          "internalType": "uint256",
          "name": "tokenId",
          "type": "uint256"
        }
      ],
      "name": "approve",
      "outputs": [],
      "stateMutability": "nonpayable",
      "type": "function"
    },
    {
      "inputs": [
        {
          "internalType": "address",
          "name": "owner",
          "type": "address"
        }
      ],
      "name": "balanceOf",
      "outputs": [
        {
          "internalType": "uint256",
          "name": "",
          "type": "uint256"
        }
      ],
      "stateMutability": "view",
      "type": "function"
    },
    {
      "inputs": [
        {
          "internalType": "uint256",
          "name": "tokenId",
          "type": "uint256"
        }
      ],
      "name": "getApproved",
      "outputs": [
        {
          "internalType": "address",
          "name": "",
          "type": "address"
        }
      ],
      "stateMutability": "view",
      "type": "function"
    },
    {
      "inputs": [
        {
          "internalType": "address",
          "name": "owner",
          "type": "address"
        },
        {
          "internalType": "address",
          "name": "operator",
          "type": "address"
        }
      ],
      "name": "isApprovedForAll",
      "outputs": [
        {
          "internalType": "bool",
          "name": "",
          "type": "bool"
        }
      ],
      "stateMutability": "view",
      "type": "function"
    },
    {
      "inputs": [],
      "name": "name",
      "outputs": [
        {
          "internalType": "string",
          "name": "",
          "type": "string"
        }
      ],
      "stateMutability": "view",
      "type": "function"
    },
    {
      "inputs": [
        {
          "internalType": "uint256",
          "name": "tokenId",
          "type": "uint256"
        }
      ],
      "name": "ownerOf",
      "outputs": [
        {
          "internalType": "address",
          "name": "",
          "type": "address"
        }
      ],
      "stateMutability": "view",
      "type": "function"
    },
    {
      "inputs": [
        {
          "internalType": "address",
          "name": "from",
          "type": "address"
        },
        {
          "internalType": "address",
          "name": "to",
          "type": "address"
        },
        {
          "internalType": "uint256",
          "name": "tokenId",
          "type": "uint256"
        }
      ],
      "name": "safeTransferFrom",
      "outputs": [],
      "stateMutability": "nonpayable",
      "type": "function"
    },
    {
      "inputs": [
        {
          "internalType": "address",
          "name": "from",
          "type": "address"
        },
        {
          "internalType": "address",
          "name": "to",
          "type": "address"
        },
        {
          "internalType": "uint256",
          "name": "tokenId",
          "type": "uint256"
        },
        {
          "internalType": "bytes",
          "name": "data",
          "type": "bytes"
        }
      ],
      "name": "safeTransferFrom",
      "outputs": [],
      "stateMutability": "nonpayable",
      "type": "function"
    },
    {
      "inputs": [
        {
          "internalType": "address",
          "name": "operator",
          "type": "address"
        },
        {
          "internalType": "bool",
          "name": "approved",
          "type": "bool"
        }
      ],
      "name": "setApprovalForAll",
      "outputs": [],
      "stateMutability": "nonpayable",
      "type": "function"
    },
    {
      "inputs": [
        {
          "internalType": "bytes4",
          "name": "interfaceId",
          "type": "bytes4"
        }
      ],
      "name": "supportsInterface",
      "outputs": [
        {
          "internalType": "bool",
          "name": "",
          "type": "bool"
        }
      ],
      "stateMutability": "view",
      "type": "function"
    },
    {
      "inputs": [],
      "name": "symbol",
      "outputs": [
        {
          "internalType": "string",
          "name": "",
          "type": "string"
        }
      ],
      "stateMutability": "view",
      "type": "function"
    },
    {
      "inputs": [
        {
          "internalType": "uint256",
          "name": "tokenId",
          "type": "uint256"
        }
      ],
      "name": "tokenURI",
      "outputs": [
        {
          "internalType": "string",
          "name": "",
          "type": "string"
        }
      ],
      "stateMutability": "view",
      "type": "function"
    },
    {
      "inputs": [
        {
          "internalType": "address",
          "name": "from",
          "type": "address"
        },
        {
          "internalType": "address",
          "name": "to",
          "type": "address"
        },
        {
          "internalType": "uint256",
          "name": "tokenId",
          "type": "uint256"
        }
      ],
      "name": "transferFrom",
      "outputs": [],
      "stateMutability": "nonpayable",
      "type": "function"
    },
    {
      "inputs": [
        {
          "internalType": "address",
          "name": "coreContract",
          "type": "address"
        }
      ],
      "name": "setCoreAddress",
      "outputs": [],
      "stateMutability": "nonpayable",
      "type": "function"
    },
    {
      "inputs": [
        {
          "internalType": "address",
          "name": "minter",
          "type": "address"
        },
        {
          "internalType": "string",
          "name": "tokenURI",
          "type": "string"
        }
      ],
      "name": "createToken",
      "outputs": [
        {
          "internalType": "uint256",
          "name": "",
          "type": "uint256"
        }
      ],
      "stateMutability": "nonpayable",
      "type": "function"
    }
  ],
  "bytecode": "0x60806040523480156200001157600080fd5b50604051620031fb380380620031fb833981810160405281019062000037919062000245565b818181600090816200004a919062000515565b5080600190816200005c919062000515565b50505033600860006101000a81548173ffffffffffffffffffffffffffffffffffffffff021916908373ffffffffffffffffffffffffffffffffffffffff1602179055505050620005fc565b6000604051905090565b600080fd5b600080fd5b600080fd5b600080fd5b6000601f19601f8301169050919050565b7f4e487b7100000000000000000000000000000000000000000000000000000000600052604160045260246000fd5b6200011182620000c6565b810181811067ffffffffffffffff82111715620001335762000132620000d7565b5b80604052505050565b600062000148620000a8565b905062000156828262000106565b919050565b600067ffffffffffffffff821115620001795762000178620000d7565b5b6200018482620000c6565b9050602081019050919050565b60005b83811015620001b157808201518184015260208101905062000194565b83811115620001c1576000848401525b50505050565b6000620001de620001d8846200015b565b6200013c565b905082815260208101848484011115620001fd57620001fc620000c1565b5b6200020a84828562000191565b509392505050565b600082601f8301126200022a5762000229620000bc565b5b81516200023c848260208601620001c7565b91505092915050565b600080604083850312156200025f576200025e620000b2565b5b600083015167ffffffffffffffff81111562000280576200027f620000b7565b5b6200028e8582860162000212565b925050602083015167ffffffffffffffff811115620002b257620002b1620000b7565b5b620002c08582860162000212565b9150509250929050565b600081519050919050565b7f4e487b7100000000000000000000000000000000000000000000000000000000600052602260045260246000fd5b600060028204905060018216806200031d57607f821691505b602082108103620003335762000332620002d5565b5b50919050565b60008190508160005260206000209050919050565b60006020601f8301049050919050565b600082821b905092915050565b6000600883026200039d7fffffffffffffffffffffffffffffffffffffffffffffffffffffffffffffffff826200035e565b620003a986836200035e565b95508019841693508086168417925050509392505050565b6000819050919050565b6000819050919050565b6000620003f6620003f0620003ea84620003c1565b620003cb565b620003c1565b9050919050565b6000819050919050565b6200041283620003d5565b6200042a6200042182620003fd565b8484546200036b565b825550505050565b600090565b6200044162000432565b6200044e81848462000407565b505050565b5b8181101562000476576200046a60008262000437565b60018101905062000454565b5050565b601f821115620004c5576200048f8162000339565b6200049a846200034e565b81016020851015620004aa578190505b620004c2620004b9856200034e565b83018262000453565b50505b505050565b600082821c905092915050565b6000620004ea60001984600802620004ca565b1980831691505092915050565b6000620005058383620004d7565b9150826002028217905092915050565b6200052082620002ca565b67ffffffffffffffff8111156200053c576200053b620000d7565b5b62000548825462000304565b620005558282856200047a565b600060209050601f8311600181146200058d576000841562000578578287015190505b620005848582620004f7565b865550620005f4565b601f1984166200059d8662000339565b60005b82811015620005c757848901518255600182019150602085019450602081019050620005a0565b86831015620005e75784890151620005e3601f891682620004d7565b8355505b6001600288020188555050505b505050505050565b612bef806200060c6000396000f3fe608060405234801561001057600080fd5b50600436106100f55760003560e01c80636352211e11610097578063a22cb46511610066578063a22cb46514610296578063b88d4fde146102b2578063c87b56dd146102ce578063e985e9c5146102fe576100f5565b80636352211e146101fc57806370a082311461022c57806391aad2391461025c57806395d89b4114610278576100f5565b8063081812fc116100d3578063081812fc14610178578063095ea7b3146101a857806323b872dd146101c457806342842e0e146101e0576100f5565b806301382807146100fa57806301ffc9a71461012a57806306fdde031461015a575b600080fd5b610114600480360381019061010f91906119fd565b61032e565b6040516101219190611a72565b60405180910390f35b610144600480360381019061013f9190611ae5565b610366565b6040516101519190611b2d565b60405180910390f35b610162610448565b60405161016f9190611bd0565b60405180910390f35b610192600480360381019061018d9190611c1e565b6104da565b60405161019f9190611c5a565b60405180910390f35b6101c260048036038101906101bd9190611c75565b610520565b005b6101de60048036038101906101d99190611cb5565b610637565b005b6101fa60048036038101906101f59190611cb5565b610697565b005b61021660048036038101906102119190611c1e565b6106b7565b6040516102239190611c5a565b60405180910390f35b61024660048036038101906102419190611d08565b610768565b6040516102539190611a72565b60405180910390f35b61027660048036038101906102719190611d08565b61081f565b005b6102806108f3565b60405161028d9190611bd0565b60405180910390f35b6102b060048036038101906102ab9190611d61565b610985565b005b6102cc60048036038101906102c79190611e42565b61099b565b005b6102e860048036038101906102e39190611c1e565b6109fd565b6040516102f59190611bd0565b60405180910390f35b61031860048036038101906103139190611ec5565b610b0f565b6040516103259190611b2d565b60405180910390f35b600061033a6007610ba3565b60006103466007610bb9565b90506103528482610bc7565b61035c8184610da0565b8091505092915050565b60007f80ac58cd000000000000000000000000000000000000000000000000000000007bffffffffffffffffffffffffffffffffffffffffffffffffffffffff1916827bffffffffffffffffffffffffffffffffffffffffffffffffffffffff1916148061043157507f5b5e139f000000000000000000000000000000000000000000000000000000007bffffffffffffffffffffffffffffffffffffffffffffffffffffffff1916827bffffffffffffffffffffffffffffffffffffffffffffffffffffffff1916145b80610441575061044082610e0d565b5b9050919050565b60606000805461045790611f34565b80601f016020809104026020016040519081016040528092919081815260200182805461048390611f34565b80156104d05780601f106104a5576101008083540402835291602001916104d0565b820191906000526020600020905b8154815290600101906020018083116104b357829003601f168201915b5050505050905090565b60006104e582610e77565b6004600083815260200190815260200160002060009054906101000a900473ffffffffffffffffffffffffffffffffffffffff169050919050565b600061052b826106b7565b90508073ffffffffffffffffffffffffffffffffffffffff168373ffffffffffffffffffffffffffffffffffffffff160361059b576040517f08c379a000000000000000000000000000000000000000000000000000000000815260040161059290611fd7565b60405180910390fd5b8073ffffffffffffffffffffffffffffffffffffffff166105ba610ec2565b73ffffffffffffffffffffffffffffffffffffffff1614806105e957506105e8816105e3610ec2565b610b0f565b5b610628576040517f08c379a000000000000000000000000000000000000000000000000000000000815260040161061f90612069565b60405180910390fd5b6106328383610eca565b505050565b610648610642610ec2565b82610f83565b610687576040517f08c379a000000000000000000000000000000000000000000000000000000000815260040161067e906120fb565b60405180910390fd5b610692838383611018565b505050565b6106b28383836040518060200160405280600081525061099b565b505050565b6000806002600084815260200190815260200160002060009054906101000a900473ffffffffffffffffffffffffffffffffffffffff169050600073ffffffffffffffffffffffffffffffffffffffff168173ffffffffffffffffffffffffffffffffffffffff160361075f576040517f08c379a000000000000000000000000000000000000000000000000000000000815260040161075690612167565b60405180910390fd5b80915050919050565b60008073ffffffffffffffffffffffffffffffffffffffff168273ffffffffffffffffffffffffffffffffffffffff16036107d8576040517f08c379a00000000000000000000000000000000000000000000000000000000081526004016107cf906121f9565b60405180910390fd5b600360008373ffffffffffffffffffffffffffffffffffffffff1673ffffffffffffffffffffffffffffffffffffffff168152602001908152602001600020549050919050565b600860009054906101000a900473ffffffffffffffffffffffffffffffffffffffff1673ffffffffffffffffffffffffffffffffffffffff163373ffffffffffffffffffffffffffffffffffffffff16146108af576040517f08c379a00000000000000000000000000000000000000000000000000000000081526004016108a69061228b565b60405180910390fd5b80600960006101000a81548173ffffffffffffffffffffffffffffffffffffffff021916908373ffffffffffffffffffffffffffffffffffffffff16021790555050565b60606001805461090290611f34565b80601f016020809104026020016040519081016040528092919081815260200182805461092e90611f34565b801561097b5780601f106109505761010080835404028352916020019161097b565b820191906000526020600020905b81548152906001019060200180831161095e57829003601f168201915b5050505050905090565b610997610990610ec2565b838361127e565b5050565b6109ac6109a6610ec2565b83610f83565b6109eb576040517f08c379a00000000000000000000000000000000000000000000000000000000081526004016109e2906120fb565b60405180910390fd5b6109f7848484846113ea565b50505050565b6060610a0882610e77565b6000600660008481526020019081526020016000208054610a2890611f34565b80601f0160208091040260200160405190810160405280929190818152602001828054610a5490611f34565b8015610aa15780601f10610a7657610100808354040283529160200191610aa1565b820191906000526020600020905b815481529060010190602001808311610a8457829003601f168201915b505050505090506000610ab2611446565b90506000815103610ac7578192505050610b0a565b600082511115610afc578082604051602001610ae49291906122e7565b60405160208183030381529060405292505050610b0a565b610b058461145d565b925050505b919050565b6000600560008473ffffffffffffffffffffffffffffffffffffffff1673ffffffffffffffffffffffffffffffffffffffff16815260200190815260200160002060008373ffffffffffffffffffffffffffffffffffffffff1673ffffffffffffffffffffffffffffffffffffffff16815260200190815260200160002060009054906101000a900460ff16905092915050565b6001816000016000828254019250508190555050565b600081600001549050919050565b600073ffffffffffffffffffffffffffffffffffffffff168273ffffffffffffffffffffffffffffffffffffffff1603610c36576040517f08c379a0000000000000000000000000000000000000000000000000000000008152600401610c2d90612357565b60405180910390fd5b610c3f816114c5565b15610c7f576040517f08c379a0000000000000000000000000000000000000000000000000000000008152600401610c76906123c3565b60405180910390fd5b610c8b60008383611531565b6001600360008473ffffffffffffffffffffffffffffffffffffffff1673ffffffffffffffffffffffffffffffffffffffff1681526020019081526020016000206000828254610cdb9190612412565b92505081905550816002600083815260200190815260200160002060006101000a81548173ffffffffffffffffffffffffffffffffffffffff021916908373ffffffffffffffffffffffffffffffffffffffff160217905550808273ffffffffffffffffffffffffffffffffffffffff16600073ffffffffffffffffffffffffffffffffffffffff167fddf252ad1be2c89b69c2b068fc378daa952ba7f163c4a11628f55a4df523b3ef60405160405180910390a4610d9c60008383611536565b5050565b610da9826114c5565b610de8576040517f08c379a0000000000000000000000000000000000000000000000000000000008152600401610ddf906124da565b60405180910390fd5b80600660008481526020019081526020016000209081610e0891906126a6565b505050565b60007f01ffc9a7000000000000000000000000000000000000000000000000000000007bffffffffffffffffffffffffffffffffffffffffffffffffffffffff1916827bffffffffffffffffffffffffffffffffffffffffffffffffffffffff1916149050919050565b610e80816114c5565b610ebf576040517f08c379a0000000000000000000000000000000000000000000000000000000008152600401610eb690612167565b60405180910390fd5b50565b600033905090565b816004600083815260200190815260200160002060006101000a81548173ffffffffffffffffffffffffffffffffffffffff021916908373ffffffffffffffffffffffffffffffffffffffff160217905550808273ffffffffffffffffffffffffffffffffffffffff16610f3d836106b7565b73ffffffffffffffffffffffffffffffffffffffff167f8c5be1e5ebec7d5bd14f71427d1e84f3dd0314c0f7b2291e5b200ac8c7c3b92560405160405180910390a45050565b600080610f8f836106b7565b90508073ffffffffffffffffffffffffffffffffffffffff168473ffffffffffffffffffffffffffffffffffffffff161480610fd15750610fd08185610b0f565b5b8061100f57508373ffffffffffffffffffffffffffffffffffffffff16610ff7846104da565b73ffffffffffffffffffffffffffffffffffffffff16145b91505092915050565b8273ffffffffffffffffffffffffffffffffffffffff16611038826106b7565b73ffffffffffffffffffffffffffffffffffffffff161461108e576040517f08c379a0000000000000000000000000000000000000000000000000000000008152600401611085906127ea565b60405180910390fd5b600073ffffffffffffffffffffffffffffffffffffffff168273ffffffffffffffffffffffffffffffffffffffff16036110fd576040517f08c379a00000000000000000000000000000000000000000000000000000000081526004016110f49061287c565b60405180910390fd5b611108838383611531565b611113600082610eca565b6001600360008573ffffffffffffffffffffffffffffffffffffffff1673ffffffffffffffffffffffffffffffffffffffff1681526020019081526020016000206000828254611163919061289c565b925050819055506001600360008473ffffffffffffffffffffffffffffffffffffffff1673ffffffffffffffffffffffffffffffffffffffff16815260200190815260200160002060008282546111ba9190612412565b92505081905550816002600083815260200190815260200160002060006101000a81548173ffffffffffffffffffffffffffffffffffffffff021916908373ffffffffffffffffffffffffffffffffffffffff160217905550808273ffffffffffffffffffffffffffffffffffffffff168473ffffffffffffffffffffffffffffffffffffffff167fddf252ad1be2c89b69c2b068fc378daa952ba7f163c4a11628f55a4df523b3ef60405160405180910390a4611279838383611536565b505050565b8173ffffffffffffffffffffffffffffffffffffffff168373ffffffffffffffffffffffffffffffffffffffff16036112ec576040517f08c379a00000000000000000000000000000000000000000000000000000000081526004016112e39061291c565b60405180910390fd5b80600560008573ffffffffffffffffffffffffffffffffffffffff1673ffffffffffffffffffffffffffffffffffffffff16815260200190815260200160002060008473ffffffffffffffffffffffffffffffffffffffff1673ffffffffffffffffffffffffffffffffffffffff16815260200190815260200160002060006101000a81548160ff0219169083151502179055508173ffffffffffffffffffffffffffffffffffffffff168373ffffffffffffffffffffffffffffffffffffffff167f17307eab39ab6107e8899845ad3d59bd9653f200f220920489ca2b5937696c31836040516113dd9190611b2d565b60405180910390a3505050565b6113f5848484611018565b6114018484848461153b565b611440576040517f08c379a0000000000000000000000000000000000000000000000000000000008152600401611437906129ae565b60405180910390fd5b50505050565b606060405180602001604052806000815250905090565b606061146882610e77565b6000611472611446565b9050600081511161149257604051806020016040528060008152506114bd565b8061149c846116c2565b6040516020016114ad9291906122e7565b6040516020818303038152906040525b915050919050565b60008073ffffffffffffffffffffffffffffffffffffffff166002600084815260200190815260200160002060009054906101000a900473ffffffffffffffffffffffffffffffffffffffff1673ffffffffffffffffffffffffffffffffffffffff1614159050919050565b505050565b505050565b600061155c8473ffffffffffffffffffffffffffffffffffffffff16611822565b156116b5578373ffffffffffffffffffffffffffffffffffffffff1663150b7a02611585610ec2565b8786866040518563ffffffff1660e01b81526004016115a79493929190612a23565b6020604051808303816000875af19250505080156115e357506040513d601f19601f820116820180604052508101906115e09190612a84565b60015b611665573d8060008114611613576040519150601f19603f3d011682016040523d82523d6000602084013e611618565b606091505b50600081510361165d576040517f08c379a0000000000000000000000000000000000000000000000000000000008152600401611654906129ae565b60405180910390fd5b805181602001fd5b63150b7a0260e01b7bffffffffffffffffffffffffffffffffffffffffffffffffffffffff1916817bffffffffffffffffffffffffffffffffffffffffffffffffffffffff1916149150506116ba565b600190505b949350505050565b606060008203611709576040518060400160405280600181526020017f3000000000000000000000000000000000000000000000000000000000000000815250905061181d565b600082905060005b6000821461173b57808061172490612ab1565b915050600a826117349190612b28565b9150611711565b60008167ffffffffffffffff811115611757576117566118d2565b5b6040519080825280601f01601f1916602001820160405280156117895781602001600182028036833780820191505090505b5090505b60008514611816576001826117a2919061289c565b9150600a856117b19190612b59565b60306117bd9190612412565b60f81b8183815181106117d3576117d2612b8a565b5b60200101907effffffffffffffffffffffffffffffffffffffffffffffffffffffffffffff1916908160001a905350600a8561180f9190612b28565b945061178d565b8093505050505b919050565b6000808273ffffffffffffffffffffffffffffffffffffffff163b119050919050565b6000604051905090565b600080fd5b600080fd5b600073ffffffffffffffffffffffffffffffffffffffff82169050919050565b600061188482611859565b9050919050565b61189481611879565b811461189f57600080fd5b50565b6000813590506118b18161188b565b92915050565b600080fd5b600080fd5b6000601f19601f8301169050919050565b7f4e487b7100000000000000000000000000000000000000000000000000000000600052604160045260246000fd5b61190a826118c1565b810181811067ffffffffffffffff82111715611929576119286118d2565b5b80604052505050565b600061193c611845565b90506119488282611901565b919050565b600067ffffffffffffffff821115611968576119676118d2565b5b611971826118c1565b9050602081019050919050565b82818337600083830152505050565b60006119a061199b8461194d565b611932565b9050828152602081018484840111156119bc576119bb6118bc565b5b6119c784828561197e565b509392505050565b600082601f8301126119e4576119e36118b7565b5b81356119f484826020860161198d565b91505092915050565b60008060408385031215611a1457611a1361184f565b5b6000611a22858286016118a2565b925050602083013567ffffffffffffffff811115611a4357611a42611854565b5b611a4f858286016119cf565b9150509250929050565b6000819050919050565b611a6c81611a59565b82525050565b6000602082019050611a876000830184611a63565b92915050565b60007fffffffff0000000000000000000000000000000000000000000000000000000082169050919050565b611ac281611a8d565b8114611acd57600080fd5b50565b600081359050611adf81611ab9565b92915050565b600060208284031215611afb57611afa61184f565b5b6000611b0984828501611ad0565b91505092915050565b60008115159050919050565b611b2781611b12565b82525050565b6000602082019050611b426000830184611b1e565b92915050565b600081519050919050565b600082825260208201905092915050565b60005b83811015611b82578082015181840152602081019050611b67565b83811115611b91576000848401525b50505050565b6000611ba282611b48565b611bac8185611b53565b9350611bbc818560208601611b64565b611bc5816118c1565b840191505092915050565b60006020820190508181036000830152611bea8184611b97565b905092915050565b611bfb81611a59565b8114611c0657600080fd5b50565b600081359050611c1881611bf2565b92915050565b600060208284031215611c3457611c3361184f565b5b6000611c4284828501611c09565b91505092915050565b611c5481611879565b82525050565b6000602082019050611c6f6000830184611c4b565b92915050565b60008060408385031215611c8c57611c8b61184f565b5b6000611c9a858286016118a2565b9250506020611cab85828601611c09565b9150509250929050565b600080600060608486031215611cce57611ccd61184f565b5b6000611cdc868287016118a2565b9350506020611ced868287016118a2565b9250506040611cfe86828701611c09565b9150509250925092565b600060208284031215611d1e57611d1d61184f565b5b6000611d2c848285016118a2565b91505092915050565b611d3e81611b12565b8114611d4957600080fd5b50565b600081359050611d5b81611d35565b92915050565b60008060408385031215611d7857611d7761184f565b5b6000611d86858286016118a2565b9250506020611d9785828601611d4c565b9150509250929050565b600067ffffffffffffffff821115611dbc57611dbb6118d2565b5b611dc5826118c1565b9050602081019050919050565b6000611de5611de084611da1565b611932565b905082815260208101848484011115611e0157611e006118bc565b5b611e0c84828561197e565b509392505050565b600082601f830112611e2957611e286118b7565b5b8135611e39848260208601611dd2565b91505092915050565b60008060008060808587031215611e5c57611e5b61184f565b5b6000611e6a878288016118a2565b9450506020611e7b878288016118a2565b9350506040611e8c87828801611c09565b925050606085013567ffffffffffffffff811115611ead57611eac611854565b5b611eb987828801611e14565b91505092959194509250565b60008060408385031215611edc57611edb61184f565b5b6000611eea858286016118a2565b9250506020611efb858286016118a2565b9150509250929050565b7f4e487b7100000000000000000000000000000000000000000000000000000000600052602260045260246000fd5b60006002820490506001821680611f4c57607f821691505b602082108103611f5f57611f5e611f05565b5b50919050565b7f4552433732313a20617070726f76616c20746f2063757272656e74206f776e6560008201527f7200000000000000000000000000000000000000000000000000000000000000602082015250565b6000611fc1602183611b53565b9150611fcc82611f65565b604082019050919050565b60006020820190508181036000830152611ff081611fb4565b9050919050565b7f4552433732313a20617070726f76652063616c6c6572206973206e6f7420746f60008201527f6b656e206f776e6572206e6f7220617070726f76656420666f7220616c6c0000602082015250565b6000612053603e83611b53565b915061205e82611ff7565b604082019050919050565b6000602082019050818103600083015261208281612046565b9050919050565b7f4552433732313a2063616c6c6572206973206e6f7420746f6b656e206f776e6560008201527f72206e6f7220617070726f766564000000000000000000000000000000000000602082015250565b60006120e5602e83611b53565b91506120f082612089565b604082019050919050565b60006020820190508181036000830152612114816120d8565b9050919050565b7f4552433732313a20696e76616c696420746f6b656e2049440000000000000000600082015250565b6000612151601883611b53565b915061215c8261211b565b602082019050919050565b6000602082019050818103600083015261218081612144565b9050919050565b7f4552433732313a2061646472657373207a65726f206973206e6f74206120766160008201527f6c6964206f776e65720000000000000000000000000000000000000000000000602082015250565b60006121e3602983611b53565b91506121ee82612187565b604082019050919050565b60006020820190508181036000830152612212816121d6565b9050919050565b7f4f6e6c79206465706c6f7965722063616e20757064617465207468697320667560008201527f6e6374696f6e0000000000000000000000000000000000000000000000000000602082015250565b6000612275602683611b53565b915061228082612219565b604082019050919050565b600060208201905081810360008301526122a481612268565b9050919050565b600081905092915050565b60006122c182611b48565b6122cb81856122ab565b93506122db818560208601611b64565b80840191505092915050565b60006122f382856122b6565b91506122ff82846122b6565b91508190509392505050565b7f4552433732313a206d696e7420746f20746865207a65726f2061646472657373600082015250565b6000612341602083611b53565b915061234c8261230b565b602082019050919050565b6000602082019050818103600083015261237081612334565b9050919050565b7f4552433732313a20746f6b656e20616c7265616479206d696e74656400000000600082015250565b60006123ad601c83611b53565b91506123b882612377565b602082019050919050565b600060208201905081810360008301526123dc816123a0565b9050919050565b7f4e487b7100000000000000000000000000000000000000000000000000000000600052601160045260246000fd5b600061241d82611a59565b915061242883611a59565b9250827fffffffffffffffffffffffffffffffffffffffffffffffffffffffffffffffff0382111561245d5761245c6123e3565b5b828201905092915050565b7f45524337323155524953746f726167653a2055524920736574206f66206e6f6e60008201527f6578697374656e7420746f6b656e000000000000000000000000000000000000602082015250565b60006124c4602e83611b53565b91506124cf82612468565b604082019050919050565b600060208201905081810360008301526124f3816124b7565b9050919050565b60008190508160005260206000209050919050565b60006020601f8301049050919050565b600082821b905092915050565b60006008830261255c7fffffffffffffffffffffffffffffffffffffffffffffffffffffffffffffffff8261251f565b612566868361251f565b95508019841693508086168417925050509392505050565b6000819050919050565b60006125a361259e61259984611a59565b61257e565b611a59565b9050919050565b6000819050919050565b6125bd83612588565b6125d16125c9826125aa565b84845461252c565b825550505050565b600090565b6125e66125d9565b6125f18184846125b4565b505050565b5b818110156126155761260a6000826125de565b6001810190506125f7565b5050565b601f82111561265a5761262b816124fa565b6126348461250f565b81016020851015612643578190505b61265761264f8561250f565b8301826125f6565b50505b505050565b600082821c905092915050565b600061267d6000198460080261265f565b1980831691505092915050565b6000612696838361266c565b9150826002028217905092915050565b6126af82611b48565b67ffffffffffffffff8111156126c8576126c76118d2565b5b6126d28254611f34565b6126dd828285612619565b600060209050601f83116001811461271057600084156126fe578287015190505b612708858261268a565b865550612770565b601f19841661271e866124fa565b60005b8281101561274657848901518255600182019150602085019450602081019050612721565b86831015612763578489015161275f601f89168261266c565b8355505b6001600288020188555050505b505050505050565b7f4552433732313a207472616e736665722066726f6d20696e636f72726563742060008201527f6f776e6572000000000000000000000000000000000000000000000000000000602082015250565b60006127d4602583611b53565b91506127df82612778565b604082019050919050565b60006020820190508181036000830152612803816127c7565b9050919050565b7f4552433732313a207472616e7366657220746f20746865207a65726f2061646460008201527f7265737300000000000000000000000000000000000000000000000000000000602082015250565b6000612866602483611b53565b91506128718261280a565b604082019050919050565b6000602082019050818103600083015261289581612859565b9050919050565b60006128a782611a59565b91506128b283611a59565b9250828210156128c5576128c46123e3565b5b828203905092915050565b7f4552433732313a20617070726f766520746f2063616c6c657200000000000000600082015250565b6000612906601983611b53565b9150612911826128d0565b602082019050919050565b60006020820190508181036000830152612935816128f9565b9050919050565b7f4552433732313a207472616e7366657220746f206e6f6e20455243373231526560008201527f63656976657220696d706c656d656e7465720000000000000000000000000000602082015250565b6000612998603283611b53565b91506129a38261293c565b604082019050919050565b600060208201905081810360008301526129c78161298b565b9050919050565b600081519050919050565b600082825260208201905092915050565b60006129f5826129ce565b6129ff81856129d9565b9350612a0f818560208601611b64565b612a18816118c1565b840191505092915050565b6000608082019050612a386000830187611c4b565b612a456020830186611c4b565b612a526040830185611a63565b8181036060830152612a6481846129ea565b905095945050505050565b600081519050612a7e81611ab9565b92915050565b600060208284031215612a9a57612a9961184f565b5b6000612aa884828501612a6f565b91505092915050565b6000612abc82611a59565b91507fffffffffffffffffffffffffffffffffffffffffffffffffffffffffffffffff8203612aee57612aed6123e3565b5b600182019050919050565b7f4e487b7100000000000000000000000000000000000000000000000000000000600052601260045260246000fd5b6000612b3382611a59565b9150612b3e83611a59565b925082612b4e57612b4d612af9565b5b828204905092915050565b6000612b6482611a59565b9150612b6f83611a59565b925082612b7f57612b7e612af9565b5b828206905092915050565b7f4e487b7100000000000000000000000000000000000000000000000000000000600052603260045260246000fdfea2646970667358221220772334f4df53bf111c44abd969c318172342046784a00c89295f6a5fb6b2278664736f6c634300080f0033",
  "immutableReferences": {},
  "source": "// SPDX-License-Identifier: MIT OR Apache-2.0\npragma solidity ^0.8.15;\n\nimport \"@openzeppelin/contracts/utils/Counters.sol\";\nimport \"@openzeppelin/contracts/token/ERC721/extensions/ERC721URIStorage.sol\";\nimport \"@openzeppelin/contracts/token/ERC721/ERC721.sol\";\n\n\ncontract BestBidNFT is ERC721URIStorage {\n    using Counters for Counters.Counter;\n    Counters.Counter private _tokenIds;\n    address deployer;\n    address contractAddress;\n\n    modifier onlyDeployer {\n        require(msg.sender == deployer, \"Only deployer can update this function\");\n        _; \n    }\n\n    constructor(string memory name, string memory symbol) ERC721(name, symbol) {\n        deployer = msg.sender;\n    }\n\n    function setCoreAddress(address coreContract) external onlyDeployer{\n        contractAddress = coreContract;\n    }\n\n    function createToken(address minter, string memory tokenURI) public returns (uint) {\n        _tokenIds.increment();\n        uint256 newItemId = _tokenIds.current();\n\t\t\n        _mint(minter, newItemId);\n        _setTokenURI(newItemId, tokenURI);\n\n        return newItemId;\n    }\n}",
  "sourcePath": "D:\\github\\BestBid\\contracts\\BestBidNFT.sol",
  "compiler": {
    "name": "solc",
    "version": "0.8.15+commit.e14f2714.Emscripten.clang"
  },
  "schemaVersion": "3.4.4",
  "updatedAt": "2022-08-22T06:12:14.476Z",
  "devdoc": {
    "kind": "dev",
    "methods": {
      "approve(address,uint256)": {
        "details": "See {IERC721-approve}."
      },
      "balanceOf(address)": {
        "details": "See {IERC721-balanceOf}."
      },
      "getApproved(uint256)": {
        "details": "See {IERC721-getApproved}."
      },
      "isApprovedForAll(address,address)": {
        "details": "See {IERC721-isApprovedForAll}."
      },
      "name()": {
        "details": "See {IERC721Metadata-name}."
      },
      "ownerOf(uint256)": {
        "details": "See {IERC721-ownerOf}."
      },
      "safeTransferFrom(address,address,uint256)": {
        "details": "See {IERC721-safeTransferFrom}."
      },
      "safeTransferFrom(address,address,uint256,bytes)": {
        "details": "See {IERC721-safeTransferFrom}."
      },
      "setApprovalForAll(address,bool)": {
        "details": "See {IERC721-setApprovalForAll}."
      },
      "supportsInterface(bytes4)": {
        "details": "See {IERC165-supportsInterface}."
      },
      "symbol()": {
        "details": "See {IERC721Metadata-symbol}."
      },
      "tokenURI(uint256)": {
        "details": "See {IERC721Metadata-tokenURI}."
      },
      "transferFrom(address,address,uint256)": {
        "details": "See {IERC721-transferFrom}."
      }
    },
    "version": 1
  },
  "userdoc": {
    "kind": "user",
    "methods": {},
    "version": 1
  }
}